:100000000C9404130C942F130C942F130C942F1393
:100010000C942F130C942F130C942F130C942F1358
:100020000C942F130C942F130C942F130C942F1348
:100030000C942F130C942F130C942F130C942F1338
:100040000C942F130C94CC210C94F8210C942422A2
:100050000C942F130C942F130C942F130C942F1318
:100060000C942F130C94F7220C942F130C944B2305
:100070000C942F130C942F130C942F130C942F13F8
:100080000C942F130C942F130C942F130C942F13E8
:100090000C9421230C942F130C9479230C942F137C
:1000A0000C942F130C942F130C94C4200C94F02058
:1000B0000C941C210C942F130C942F130C94482196
:1000C0000C9474210C94A0210C942F130C942F13D6
:1000D0000C942F130C942F130C942F130C942F1398
:1000E0000C942F130C942F130C942F130C942F1388
:1000F0000C942B1B0C942F130C94641B0C94981BC6
:100100000C942F130C942F130C94761F0C942F1314
:100110000C943E1F0C942F130C942F130C94171C4B
:100120000C94101B0C942F130C942F130C942F135E
:100130000C942F135B2F632F01306B2F0130013094
:10014000732F7B2FB92F0130013001300130013086
:10015000C12F0130C92FD12F0130DB2F01300130E9
:10016000F02F0130F82F2862286234624962F7626A
:100170004D6251622C622C625C62F7626062646262
:10018000F0623062F46255622D7C697C2D7CB47C17
:10019000CB7C697CCB7C2D7CCB8DDC8D768F768F78
:1001A000E78D118F3D8FE48E468E3CAD48AD56AD48
:1001B00070AD59AE86AD9FADC4AD3CADE3ADFCAD09
:1001C00015AE25AE61C9F5C976C98FC9A8C9A8C938
:1001D000C2C9F5C9F5C9F5C9F5C9F5C9F5C9F5C962
:1001E000F5C9F5C9F5C9F5C9F5C9F5C9F5C9F5C91F
:1001F000F5C9CFC9F5C9E9C9F5C9DEC90C94F3F24F
:100200000C94E9C90C9447F70C9401300C94CB8DF5
:100210000C9451620C9456F30C949BF00C943A732A
:100220000C948FC90C9493E50C9412F20C94E1C2D7
:100230000C9432D90C9421CE0C94B47C0C9434627E
:100240000C94009C0C9412F30C94DC8D0C94D4C090
:100250000C9496F60C9448AD0C9460620C9461C9B1
:100260000C94CB190C94E78D0C94D9160C945B2F3D
:100270000C94F4620C94B92F0C9464620C94D82BF7
:100280000C94E1850C94B9960C94359C0C9485C51E
:100290000C94439E0C9455620C94122A0C94732F68
:1002A0000C94D12F0C946B2F0C94E48E0C94A8C951
:1002B0000C94118F0C9419FA0C94632F0C9476C93A
:1002C0000C94F02F0C943D8F0C9412720C942EC64B
:1002D0000C94DB2F0C94FED10C942C170C9459AE7B
:1002E0000C94229C0C9441F30C9425AE0C94FF9B2F
:1002F0000C94403A0C94768F0C945BF30C94F5C9F3
:100300000C9431130C945C620C94F0620C9456AD16
:100310000C9430620C942D240C94C4230C94697CAE
:100320000C94DEC90C942C620C943CAD0C94C67BEE
:100330000C9428620C9463740C942FBA0C94AC86C1
:100340000C947B7A0C94CB7C0C9453800C94F82FF7
:100350000C9486AD0C949FAD0C94D7230C943D3136
:100360000C94F7620C94FCAD0C9449620C948AD303
:100370000C94C92F0C94C4AD0C943C240C942119FA
:100380000C947B2F0C9417F30C94E3AD0C945A1936
:100390000C942D7C0C94DA7E0C9415AE0C94A8D0A1
:1003A0000C94C2C90C94E7490C9409190C94CFC958
:1003B0000C94468E0C94FAB40C9470AD0C944D626F
:1003C0000C94AFC40C94C12F464154414C2045526B
:1003D000524F523A204241444953525F766563740A
:1003E0002063616C6C65642C20756E70726F636540
:1003F0007373656420496E746572727570742E0A29
:1004000053544F5020457865637574696F6E2E0A9A
:1004100000202072657365743A2025640A0020204C
:100420007075626C6973683A207375636365737382
:100430002025642C206661696C2025640A00202038
:1004400072656769737465723A2073756363657367
:10045000732025642C206661696C2025640A0020C5
:1004600020636F6E6E6563743A20737563636573A2
:10047000732025642C206661696C2025640A005372
:100480007461746973746963733A000A0070756209
:100490006C697368696E6700636F6E6E656374651F
:1004A00064006E6F7420636F6E6E656374656400C4
:1004B0004D5154542D534E2073746174653A20008D
:1004C0002F73656E736F72730025732F002573256C
:1004D00073006D717075625F636F6E6E6563743A01
:1004E0002025640A007374617274206D71707562E6
:1004F0003A207069642025640A0053746172742084
:10050000656D637574653A207069642025640A001E
:100510004D5154542D534E3A20646973636F6E6E7F
:10052000656374206661696C65642025640A005205
:100530006567697374657220746F706963202564E0
:1005400020666F7220222573220A006572726F7214
:100550003A20756E61626C6520746F206F62746101
:10056000696E20746F70696320494420666F722041
:100570002225732220286572726F72202564290A51
:10058000006D717075623A20726567697374657287
:100590002025730A004D5154542D534E3A20436F79
:1005A0006E6E65637420746F20676174657761791E
:1005B000205B25735D3A25640A006572726F723A9A
:1005C00020756E61626C6520746F20636F6E6E655E
:1005D000637420746F2067617465776179205B258F
:1005E000735D3A256420286572726F722025642934
:1005F0000A005D3A25640A006D717075623A204305
:100600006F6E6E65637420746F205B000A0A6572FA
:10061000726F723A20756E61626C6520746F207023
:1006200075626C697368206461746120746F2074F2
:100630006F70696320272573205B25695D2720285B
:100640006572726F72202564290A006D717075627F
:100650003A207075626C6973682020256420746F7D
:100660002025733A20222573220A00253032780093
:1006700043616E277420676574206E6F64656964DA
:100680000A007B22536563223A256C752C22444272
:10069000305F33223A252D752C224442305F3522BB
:1006A0003A252D752C22444231223A252D752C22D3
:1006B0004442325F35223A252D752C2244423522A0
:1006C0003A252D752C2244423130223A252D7520B1
:1006D0007D005D005B00436F6E7465787420257546
:1006E00020616C7265616479206D61726B65642054
:1006F000666F722072656D6F76616C0A00574152A9
:100700004E494E473A20636F6E7465787420646971
:100710007373656D696E6174696F6E206279206EA6
:100720006F6E2D364C4252206E6F74207375707050
:100730006F72746564002020202020202072656183
:10074000737369676E656420616674657220352015
:100750006D696E2E00202020202020206064656CB2
:10076000602077696C6C206F6E6C7920696E7661A1
:100770006C69646174652074686520636F6E74656C
:10078000787420666F7220636F6D70726573736921
:100790006F6E2E2049742063616E20626500757350
:1007A0006167653A202573205B7B616464203C307F
:1007B0002D31353E203C7072656669783E2F3C7065
:1007C00072656669785F6C656E3E203C6C74696D1D
:1007D0006520696E206D696E3E7C64656C203C63AB
:1007E00074783E7D5D0A004552524F523A20636153
:1007F0006E206E6F742061646420636F6E74657820
:1008000074004552524F523A2070726566697820E2
:100810006D6179206E6F74206265203A3A0045520E
:10082000524F523A207072656669785F6C656E202F
:100830003C2031207C7C207072656669785F6C6535
:100840006E203E20313238005741524E494E473AD1
:1008500020636F6E746578742064697373656D6965
:100860006E6174696F6E206279206E6F6E2D364CEA
:100870004252206E6F7420737570706F727465646D
:1008800000202532757C253339732F252D33757C57
:1008900025787C2535756D696E0A002D2D2D2D2D41
:1008A0002D2D2D2D2D2D2D2D2D2D2D2D2D2D2D2D78
:1008B0002D2D2D2D2D2D2D2D2D2D2D2D2D2D2D2D68
:1008C0002D2D2D2D2D2D2D2D2D2D2D2D2D2D2D2D58
:1008D0002D2D2D2D2D2D006369647C707265666948
:1008E00078202020202020202020202020202020B0
:1008F00020202020202020202020202020202020F8
:100900002020202020207C437C6C74696D6500755C
:10091000736167653A202573207B6E656967687C23
:100920007072656669787C726F7574657C616272DD
:100930007C68656C707D202E2E2E0A0020202020E1
:1009400020202025732025732073686F770A007597
:10095000736167653A202573202573205B73686F88
:10096000777C68656C705D0A0020202020202020A4
:1009700025732025732073686F77205B6966616338
:10098000655D0A002020202020202025732025736B
:100990002064656C203C69666163653E203C707232
:1009A000656669783E5B2F3C7072656669785F6C3E
:1009B000656E3E5D0A002020202020202025732027
:1009C000257320616464203C69666163653E203C58
:1009D0007072656669783E5B2F3C707265666978F7
:1009E0005F6C656E3E5D203C6E6578745F686F700D
:1009F0003E205B3C6C74696D6520696E2073656395
:100A00003E5D0A0075736167653A20257320257382
:100A1000205B73686F777C6164647C64656C7C6860
:100A2000656C705D0A00496E74657266616365206D
:100A3000257520646F6573206E6F74206578697307
:100A4000740A00496E7465726661636520257520BD
:100A5000646F6573206E6F742065786973740A0023
:100A60002020202020202025732025732073686FEC
:100A700077205B69666163655D0A00202020202085
:100A8000202025732025732064656C203C696661F5
:100A900063653E203C7072656669783E5B2F3C70F2
:100AA00072656669785F6C656E3E5D0A0020202085
:100AB00020202020257320257320616464203C6958
:100AC000666163653E203C7072656669783E5B2FA7
:100AD0003C7072656669785F6C656E3E5D205B3C5C
:100AE00076616C696420696E207365633E5D205B8E
:100AF0003C7072656620696E207365633E5D0A0016
:100B000075736167653A202573202573205B7368D0
:100B10006F777C6164647C64656C7C68656C705D17
:100B20000A00496E746572666163652025752064EC
:100B30006F6573206E6F742065786973740A00495D
:100B40006E7465726661636520257520646F6573D8
:100B5000206E6F742065786973740A00496E74653D
:100B6000726661636520257520646F6573206E6F02
:100B7000742065786973740A0020202020202020CA
:100B800025732025732073686F77205B6966616326
:100B9000655D0A0020202020202020257320257359
:100BA0002064656C203C69666163653E203C697029
:100BB000763620616464723E0A00202020202020C6
:100BC00020257320257320616464203C696661637D
:100BD000653E203C6970763620616464723E205B1D
:100BE0003C6C3220616464723E5D0A00757361671B
:100BF000653A202573202573205B73686F777C61CD
:100C000064647C64656C7C68656C705D0A00496E28
:100C10007465726661636520257520646F65732055
:100C20006E6F742065786973740A00556E61626C2A
:100C30006520746F20616464202573252525752047
:100C4000746F206E65696768626F722063616368A4
:100C5000650A00496E7465726661636520257520BA
:100C6000646F6573206E6F742065786973740A0011
:100C7000737563636573733A202573736574206FAE
:100C80007074696F6E0A006572726F723A20756EC9
:100C900061626C6520746F20736574206F70746975
:100CA0006F6E002020202020202072657365742044
:100CB00063616E206265206F6E6C79207573656468
:100CC00020696620746865206D6F64756C652069A5
:100CD00073207370656369666965642E007573615E
:100CE00067653A202573203C69665F69643E20731E
:100CF00074617473205B6C327C697076365D205B46
:100D000072657365745D0A007D007C002573007553
:100D1000736167653A202573203C69665F69643EAC
:100D2000205B2D5D7B0075736167653A202573201C
:100D30003C69665F69643E205B75707C646F776EAA
:100D40005D0A0075736167653A2025730A002020EB
:100D5000202020202020202053746174697374693E
:100D6000637320666F722025730A202020202020C4
:100D70002020202020205258207061636B657473FE
:100D8000202575202062797465732025750A20203E
:100D90002020202020202020202054582070616313
:100DA0006B65747320257520284D756C74696361BB
:100DB00073743A2025752920206279746573202583
:100DC000750A202020202020202020202020545878
:100DD000207375636365656465642025752065729D
:100DE000726F72732025750A0052657365742073E3
:100DF00074617469737469637320666F72206D6FB8
:100E000064756C65202573210A0020202020202095
:100E1000202020202050726F746F636F6C206F72DF
:100E20002064657669636520646F65736E2774203E
:100E300070726F7669646520737461746973746924
:100E400063732E000A00737563636573733A2072CF
:100E5000656D6F76656420257320746F20696E74EC
:100E600065726661636520006572726F723A207503
:100E70006E61626C6520746F2072656D6F7665209F
:100E80004950763620616464726573730A00657236
:100E9000726F723A20756E61626C6520746F206C9F
:100EA000656176652049507636206D756C7469638E
:100EB0006173742067726F75700A006572726F7269
:100EC0003A20756E61626C6520746F207061727378
:100ED00065204950763620616464726573732E0014
:100EE00075736167653A202573203C69665F6964A4
:100EF0003E2064656C203C697076365F6164647284
:100F00003E0A000A00737563636573733A20616477
:100F10006465642025732F256420746F20696E74C6
:100F200065726661636520006572726F723A207542
:100F30006E61626C6520746F206164642049507634
:100F40003620616464726573730A006572726F7231
:100F50003A20756E61626C6520746F206A6F696EED
:100F60002049507636206D756C7469636173742006
:100F700067726F75700A006572726F723A20756ED3
:100F800061626C6520746F207061727365204950D6
:100F9000763620616464726573732E0075736167C1
:100FA000653A202573203C69665F69643E20616470
:100FB00064205B616E79636173747C6D756C7469B8
:100FC000636173747C756E69636173745D203C69E1
:100FD0007076365F616464723E5B2F70726566691D
:100FE000785F6C656E5D0A006572726F723A20758B
:100FF0006E61626C6520746F20736574206C696E1D
:101000006B2025730A0020746F2025730A00737506
:1010100063636573733A20736574207374617465D8
:10102000206F6620696E7465726661636520006575
:1010300072726F723A20756E61626C6520746F20F7
:1010400073657420737461746520746F2025730A4E
:101050000075736167653A206966636F6E666967DC
:10106000203C69665F69643E207365742073746117
:101070007465205B6F66667C736C6565707C696403
:101080006C657C72787C74787C72657365747C7333
:1010900074616E6462795D00256C750A0030782594
:1010A00030346C780A0020746F2000206F6E206945
:1010B0006E74657266616365200073756363657342
:1010C000733A207365742000006572726F723A2063
:1010D000756E61626C6520746F20736574200065A5
:1010E00072726F723A20756E61626C6520746F2047
:1010F00070617273652076616C75652E0A4D75732B
:101100007420626520612031362D62697420756E0D
:101110007369676E656420696E74656765722028FF
:10112000646563206F7220686578290A00657272B1
:101130006F723A20756E61626C6520746F20706109
:101140007273652076616C75652E0A4D7573742017
:10115000626520612031362D62697420756E736975
:10116000676E656420696E746567657220286465C2
:1011700063206F7220686578290A006572726F7249
:101180003A20756E61626C6520746F2070617273B5
:10119000652076616C75652E0A4D757374206265E5
:1011A00020612031362D62697420756E7369676E17
:1011B000656420696E7465676572202864656320C4
:1011C0006F7220686578290A0020746F2025690AEB
:1011D00000206F6E20696E74657266616365200021
:1011E000737563636573733A2073657420000065DB
:1011F00072726F723A20756E61626C6520746F2036
:10120000736574200020746F2025690A00206F6EBA
:1012100020696E746572666163652000737563632F
:101220006573733A207365742000006572726F7283
:101230003A20756E61626C6520746F20736574204E
:101240000000253032780020746F200A0073756327
:10125000636573733A2073657420656E6372797089
:1012600074696F6E206B6579206F6E20696E74658E
:10127000726661636520006572726F723A20756EE6
:1012800061626C6520746F2073657420656E637293
:10129000797074696F6E206B6579006572726F7218
:1012A0003A20756E61626C6520746F207061727394
:1012B00065206B6579006572726F723A20696E768F
:1012C000616C6964206B65792073697A652E0A0008
:1012D0000A4E6F746963653A2073657474696E674A
:1012E0002035313220626974206B65792E000A4EF8
:1012F0006F746963653A2073657474696E67203230
:10130000353620626974206B65792E000A4E6F7441
:101310006963653A2073657474696E672031393288
:1013200020626974206B65792E000A4E6F746963C0
:10133000653A2073657474696E67203132382062B3
:101340006974206B65792E000A4E6F746963653A83
:101350002073657474696E67203634206269742066
:101360006B65792E000A4E6F746963653A20736568
:101370007474696E6720353620626974206B6579F4
:101380002E00256C750A0030782530346C780A0000
:1013900020746F2000206F6E20696E746572666124
:1013A00063652000737563636573733A20736574B6
:1013B0002000006572726F723A20756E61626C6512
:1013C00020746F2073657420006572726F723A200A
:1013D000756E61626C6520746F2070617273652038
:1013E00076616C75652E0A4D757374206265206197
:1013F0002033322D62697420756E7369676E65647F
:1014000020696E74656765722028646563206F7259
:1014100020686578290A006572726F723A20756ECD
:1014200061626C6520746F207061727365207661F3
:101430006C75652E0A4D75737420626520612033CA
:10144000322D62697420756E7369676E65642069F8
:101450006E74656765722028646563206F7220680A
:101460006578290A0052583220646174617261748F
:10147000650064617461726174650050485920624E
:10148000757379006C696E6B20636865636B006FC0
:1014900074616100636865636B73756D006869678B
:1014A00068207261746500656E6372797074696F2B
:1014B0006E206B657900656E6372797074696F6E0A
:1014C00000434341207468726573686F6C64205BED
:1014D000696E2064426D5D0043534D412072657416
:1014E00072696573006D61782E2072657472616E29
:1014F000736D697373696F6E7300545820706F77E2
:101500006572205B696E2064426D5D006E65747764
:101510006F726B206964656E746966696572004DEF
:10152000545500686F70206C696D69740070616754
:1015300065006672657175656E6379205B696E2002
:10154000487A5D006368616E6E656C00736F7572DA
:1015500063652061646472657373206C656E677483
:101560006800417070455549004E776B534B657963
:1015700000417070534B6579004170704B65790084
:101580006C6F6E67206164647265737300287368A2
:101590006F72742920616464726573730020746FC4
:1015A0002025730A00206F6E20696E746572666173
:1015B00063652000737563636573733A20736574A4
:1015C0002000006572726F723A20756E61626C6500
:1015D00020746F2073657420006572726F723A20F8
:1015E000756E61626C6520746F2070617273652026
:1015F000616464726573732E0A4D7573742062653D
:10160000206F6620666F726D6174205B302D3961CA
:101610002D66412D465D7B327D283A5B302D396148
:101620002D66412D465D7B327D292A0A2868657822
:101630002070616972732064656C696D697465649A
:1016400020627920636F6C6F6E7329002020202048
:1016500020205365747320616E2068617264776125
:101660007265207370656369666963207370656372
:10167000696669632076616C75650A2020202020E8
:10168000203C6B65793E206D6179206265206F6E2C
:1016900065206F662074686520666F6C6C6F776973
:1016A0006E670A202020202020202A2022616464E6
:1016B0007222202D2073657473202873686F7274F2
:1016C0002920616464726573730A20202020202021
:1016D000202A2022616464725F6C6F6E6722202D65
:1016E0002073657473206C6F6E672061646472652B
:1016F00073730A202020202020202A202261646485
:10170000725F73686F727422202D20616C6961733F
:1017100020666F72202261646472220A20202020D9
:101720002020202A20226363615F746872657368D9
:101730006F6C6422202D20736574204544207468EA
:10174000726573686F6C6420647572696E6720439C
:10175000434120696E2064426D0A20202020202011
:10176000202A20226672657122202D2073657473F1
:101770002074686520226368616E6E656C22206348
:10178000656E746572206672657175656E63790A3F
:10179000202020202020202A20226368616E6E6590
:1017A0006C22202D20736574732074686520667226
:1017B000657175656E6379206368616E6E656C0A2C
:1017C000202020202020202A20226368616E2220F1
:1017D0002D20616C69617320666F722022636861DD
:1017E0006E6E656C220A202020202020202A2022D4
:1017F000636865636B73756D22202D20736574209B
:10180000636865636B73756D6D696E67206F6E2DB0
:101810006F66660A202020202020202A2022637361
:101820006D615F7265747269657322202D20736526
:1018300074206D61782E206E756D626572206F6602
:10184000206368616E6E656C2061636365737320ED
:10185000617474656D7074730A202020202020202C
:101860002A2022656E637279707422202D207365A0
:10187000742074686520656E6372797074696F6E28
:10188000206F6E2D6F66660A202020202020202ADF
:101890002022686F705F6C696D697422202D20733F
:1018A000657420686F70206C696D69740A2020204F
:1018B000202020202A2022686C22202D20616C69A3
:1018C000617320666F722022686F705F6C696D694A
:1018D00074220A202020202020202A20226B6579D3
:1018E00022202D207365742074686520656E6372F4
:1018F000797074696F6E206B657920696E206865F8
:101900007861646563696D616C20666F726D617486
:101910000A202020202020202A20226D74752220D9
:101920002D2049507636206D6178696D756D207473
:1019300072616E736974696F6E20756E69740A20C6
:101940002020202020202A20226E696422202D20A1
:101950007365747320746865206E6574776F726B3D
:10196000206964656E74696669657220286F7220EB
:101970007468652050414E204944290A20202020C7
:101980002020202A20227061676522202D20736587
:101990007420746865206368616E6E656C20706188
:1019A0006765202849454545203830322E31352E8F
:1019B00034290A202020202020202A202270616E35
:1019C00022202D20616C69617320666F7220226E67
:1019D0006964220A202020202020202A20227061F1
:1019E0006E5F696422202D20616C69617320666FCF
:1019F0007220226E6964220A202020202020202AC2
:101A000020227068795F6275737922202D207365BA
:101A1000742062757379206D6F6465206F6E2D6F11
:101A200066660A202020202020202A2022706F773E
:101A3000657222202D20545820706F7765722069BE
:101A40006E2064426D0A202020202020202A20229F
:101A500072657472616E7322202D206D61782E2064
:101A60006E756D626572206F662072657472616E4C
:101A7000736D697373696F6E730A202020202020B4
:101A8000202A20227372635F6C656E22202D2073E2
:101A90006574732074686520736F75726365206167
:101AA000646472657373206C656E67746820696E18
:101AB00020627974650A202020202020202A2022FC
:101AC000737461746522202D2073657420746865B9
:101AD000206465766963652073746174650A0075B6
:101AE000736167653A202573203C69665F69643ECF
:101AF00020736574203C6B65793E203C76616C7583
:101B0000653E0A00696E6574362067726F75703ABB
:101B1000202573002020554E4B00202056414C00BC
:101B20002020445052002020544E545B25755D0007
:101B3000205B616E79636173745D00756E6B6E6FAF
:101B4000776E00676C6F62616C0073697465006C1E
:101B5000696E6B002573202073636F70653A2000F7
:101B6000696E65743620616464723A20000A202030
:101B70002020202020202020002573002573000035
:101B8000004C696E6B20747970653A2025730053A0
:101B90006F757263652061646472657373206C6530
:101BA0006E6774683A20257500484C3A25752020E8
:101BB000004D54553A25752020004C322D50445587
:101BC0003A25752020002043534D41205265747200
:101BD0006965733A2025752000206D61782E2052AA
:101BE000657472616E732E3A20257520002053743F
:101BF0006174653A20257320002054582D506F776A
:101C000065723A20256964426D2000257320004CDE
:101C10006F6E67204857616464723A2000204C69F7
:101C20006E6B3A2025732000206869676820646124
:101C3000746120726174653A20256420000A2020B6
:101C4000202020202020202000205048593A202504
:101C500073200020525353493A2025642000204E1F
:101C600049443A2030782578200020506167653A51
:101C70002025752000204672657175656E63793A7E
:101C800020256C75487A2000204368616E6E656C73
:101C90003A2025752000204857616464723A202557
:101CA000732000200049666163652020004D6F6449
:101CB000756C6520257320646F65736E27742065CD
:101CC00078697374206F7220646F6573206E6F740F
:101CD0002070726F766964652073746174697374BF
:101CE0006963732E0A006572726F723A20696E76AC
:101CF000616C696420696E746572666163652067F2
:101D00006976656E002A2073686F770909090909E9
:101D10002D2073686F7720696E7374616E63652020
:101D2000616E6420646F646167207461626C6573C6
:101D3000002A207365742070696F203C6F6E2F6FCE
:101D400066663E203C696E7374616E63655F6964AC
:101D50003E092D202864652D2961637469766174BC
:101D6000652050494F207472616E736D6973736999
:101D70006F6E7320696E2044494F73002A2073658B
:101D80006E6420646973203C5649445F666C6167E9
:101D9000733E203C76657273696F6E3E203C696EBF
:101DA0007374616E63655F69643E203C646F646157
:101DB000675F69643E202D2073656E642061206D2D
:101DC000756C746963617374204449532077697436
:101DD0006820534F4C206F7074696F6E002A207317
:101DE000656E6420646973090909092D2073656EA5
:101DF000642061206D756C7469636173742044495B
:101E000053002A20726F75746572203C696E73747A
:101E1000616E63655F69643E0909092D206F706515
:101E20007261746520617320726F757465722069C8
:101E30006E2074686520696E7374616E6365002A34
:101E400020726F6F74203C696E73745F69643E200A
:101E50003C646F6461675F69643E09092D206164B9
:101E600064206120646F64616720746F2061206E5C
:101E70006577206F72206578697374696E67206971
:101E80006E7374616E6365002A20726D203C696E0A
:101E90007374616E63655F69643E0909092D20648E
:101EA000656C6574652074686520676976656E2069
:101EB000696E7374616E636520616E642072656C17
:101EC0006174656420646F646167002A20747269BC
:101ED000636B6C652073746F70203C696E73746102
:101EE0006E63655F69643E09092D2073746F70200D
:101EF00074686520747269636B6C652074696D65C4
:101F000072002A20747269636B6C6520737461724D
:101F100074203C696E7374616E63655F69643E0929
:101F2000092D20737461727420746865207472695D
:101F3000636B6C652074696D6572002A2074726928
:101F4000636B6C65207265736574203C696E737495
:101F5000616E63655F69643E09092D207265736572
:101F6000742074686520747269636B6C6520746991
:101F70006D6572002A206C656166203C696E737421
:101F8000616E63655F69643E0909092D206F7065A4
:101F900072617465206173206C65616620696E20D2
:101FA00074686520696E7374616E6365002A2069C8
:101FB0006E6974203C69665F69643E090909092DF0
:101FC00020696E697469616C697A652052504C2091
:101FD0006F6E2074686520676976656E20696E741F
:101FE000657266616365002A2068656C700909097D
:101FF00009092D2073686F77207573616765007319
:102000007563636573733A202573616374697661E0
:102010007465642050494F207472616E736D6973EA
:1020200073696F6E730A006572726F723A20636F24
:10203000756C64206E6F742066696E6420746865C8
:1020400020696E7374616E636520282564290A0017
:10205000737563636573733A206F7065726174653D
:1020600020696E20696E7374616E63652028256433
:10207000292061732025730A006572726F723A20FD
:10208000636F756C64206E6F742066696E64207473
:10209000686520696E7374616E6365202825642904
:1020A0000A000909706172656E74205B6164647274
:1020B0003A202573207C2072616E6B3A2025645D86
:1020C0000A0009646F646167205B2573207C2052DD
:1020D0003A202564207C204F503A202573207C2014
:1020E00050494F3A202573207C20545228493D5BAB
:1020F00025642C25645D2C206B3D25642C20633DDC
:1021000025642C2054433D256C7573295D0A0069B4
:102110006E7374616E6365205B2564207C20496664
:102120006163653A202569207C206D6F703A202517
:1021300064207C206F63703A202564207C206D68C9
:1021400072693A202564207C206D72692025645DC7
:102150000A005B585D005B205D00706172656E7403
:10216000207461626C653A09005B585D005B205D1C
:1021700000696E7374616E6365207461626C653AA8
:10218000090044414F2D41434B20202023627974A4
:1021900065733A202531306C75202F20252D313084
:1021A0006C7520202531306C75202F20252D313085
:1021B0006C750A0044414F2D41434B2023706163ED
:1021C0006B6574733A202531306C75202F20252DD6
:1021D00031306C7520202531306C75202F20252D55
:1021E00031306C750A0044414F20202020202020EF
:1021F0002362797465733A202531306C75202F2065
:10220000252D31306C7520202531306C75202F2024
:10221000252D31306C750A0044414F2020202020AC
:10222000237061636B6574733A202531306C7520BF
:102230002F20252D31306C7520202531306C7520F4
:102240002F20252D31306C750A0044495320202061
:10225000202020202362797465733A202531306C68
:1022600075202F20252D31306C7520202531306CC4
:1022700075202F20252D31306C750A0044495320DC
:1022800020202020237061636B6574733A20253110
:10229000306C75202F20252D31306C752020253194
:1022A000306C75202F20252D31306C750A00444983
:1022B0004F202020202020202362797465733A204B
:1022C0002531306C75202F20252D31306C75202064
:1022D0002531306C75202F20252D31306C750A008A
:1022E00044494F2020202020237061636B65747364
:1022F0003A202531306C75202F20252D31306C751A
:1023000020202531306C75202F20252D31306C7523
:102310000A00537461746973746963732020202008
:102320002020202028756361737429205258202FA3
:102330002054582020202020202020202020202031
:1023400020202020205258202F20545820286D6310
:102350006173742900737563636573733A207365E1
:102360006E642061204449530A007375636365738A
:10237000733A2073656E6420612044495320776965
:10238000746820534F4C206F7074696F6E0A00732D
:102390007563636573733A20737461727465642046
:1023A000747269636B6C652074696D6572206F6609
:1023B00020444F44414720282573292066726F6DC1
:1023C00020696E7374616E636520282564290A0094
:1023D0006572726F723A20636F756C64206E6F74F1
:1023E0002066696E6420746865203C696E73746150
:1023F0006E63655F69643E00737563636573733A0A
:102400002073746F7070656420747269636B6C659F
:102410002074696D6572206F6620444F44414720E7
:10242000282573292066726F6D20696E7374616E42
:10243000636520282564290A006572726F723A204C
:10244000636F756C64206E6F742066696E642074AF
:102450006865203C696E7374616E63655F69643E94
:1024600000737563636573733A20726573657420D6
:10247000747269636B6C652074696D6572206F6638
:1024800020444F44414720282573292066726F6DF0
:1024900020696E7374616E636520282564290A00C3
:1024A0006572726F723A20636F756C64206E6F7420
:1024B0002066696E6420746865203C696E7374617F
:1024C0006E63655F69643E00737563636573733A39
:1024D0002072656D6F76656420696E7374616E63DA
:1024E0006520282564290A006572726F723A20639C
:1024F0006F756C64206E6F742072656D6F766520E9
:10250000696E7374616E636520282564290A00650D
:1025100072726F723A20636F756C64206E6F7420F4
:1025200066696E642074686520696E7374616E6399
:102530006520282564290A007375636365737366D3
:10254000756C6C792061646465642061206E6577C8
:102550002052504C20444F4441470A006572726F2C
:10256000723A20636F756C64206E6F7420616464CE
:1025700020444F444147202825732920746F206947
:102580006E7374616E636520282564290A00657284
:10259000726F723A203C646F6461675F69643E20C9
:1025A0006D75737420626520612076616C696420AA
:1025B0004950763620616464726573730073756385
:1025C0006365737366756C6C7920696E6974696193
:1025D0006C697A65642052504C206F6E20696E746D
:1025E0006572666163652025640A00756E6B6E6FA7
:1025F000776E20696E7465726661636520737065BD
:102600006369666965640000832D80934D63822D44
:1026100080934E6311241FBECFEFD1E8DEBFCDBF44
:1026200000E00CBF1FE1A0E0B2E0E8EEF9E002E05C
:102630000BBF02C007900D92AA30B107D9F723E66D
:10264000AAE0BFE101C01D92AD34B207E1F70E94DC
:10265000441C0D94F2040E948C130D94F2040C940B
:10266000E41BAF92BF92CF92DF92EF92FF920F9353
:102670001F93CF93DF930E94F9C5182F092F0E9453
:10268000F4C5EC010E94EFC50F931F93DF93CF9326
:102690009F938F9389E892E09F938F930F94970174
:1026A0000E9417C6B82EA92E0E9412C6D82EC92E77
:1026B0000E940DC6F82EE92E0E9408C6182F092F79
:1026C0000E9403C6EC010E94FEC5AF92BF92CF925A
:1026D000DF92EF92FF920F931F93DF93CF939F931D
:1026E0008F9384EA92E09F938F930F9497018DB715
:1026F0009EB746960FB6F8949EBF0FBE8DBF80E082
:1027000090E0DF91CF911F910F91FF90EF90DF90BC
:10271000CF90BF90AF9008950E944AC768E070E0E4
:102720008AE89FE10E9494270E9409C540E850E092
:102730006AE07FE184E093E00E94E0CEF7CFCF92A1
:10274000DF92EF920F931F93CF93DF93811104C019
:102750006A3929F483EC01C088EB9FEF1BC0890123
:102760006A01C62F80E090E00E94C41E009791F499
:102770004C2F50E0E12C960168E570E080E090E09D
:102780000E94C1FCD82FC92F80E090E00E94E01E7B
:102790008D2F9C2FDF91CF911F910F91EF90DF90A4
:1027A000CF900895AB0128E030E068E90C949F13C6
:1027B000CF93DF93EC0183E893E09983888388E0EB
:1027C0008F8F1D8E18A210924E01BE01655F7F4F44
:1027D000CE010E94763089898F7789878A898A8796
:1027E000DF91CF910895CF93DF93EC010E948AC8C7
:1027F0008D8D811104C063E0CE010E940D16BE01D3
:10280000655F7F4FCE010E94EC14BE01675F7F4F72
:10281000CE010E94D81469E1CE010E94001560E04B
:1028200070E0CE010E942F1541E060E870E0CE011B
:102830000E94A31541E060E170E0CE010E94A31563
:1028400021E030E046E153E067E1CE010E9448C953
:1028500080E880934C01809156018E6380935601ED
:1028600066EACE010E94411588E480934E0181E022
:102870008093BE0080914F0186E18F8F66E1CE018B
:10288000DF91CF910C940D16CF93DF93EC0188A1CB
:102890008F5F88A369E1CE010E940D16893109F08E
:1028A0008F8F82E08E8FDF91CF9108950F931F93CA
:1028B000CF93DF93FC01EA018901968D940F968FE7
:1028C00081E0820F90E080589E4F0F943E00CE0131
:1028D000800F911FDF91CF911F910F910895CF939A
:1028E000DF93EC018FEF89A3BE01625E7F4F41E071
:1028F00050E080E891E00F943E0082E08093420136
:10290000EA81FB81309741F08B8D80FF05C063E049
:10291000CE01DF91CF911994DF91CF910895FF926D
:102920000F931F93CF93DF93EC0168E00E940D1685
:10293000F82E00915501802F80688093550166E044
:10294000CE010E940D168091480180688093480155
:102950001091410117FFFCCF0093550168E0CE01B3
:102960000E940D166F2DCE010E940D1616FB8827B2
:1029700080F9DF91CF911F910F91FF9008951F93E0
:10298000CF93DF93EC01162F40934201663151F053
:10299000CE010E945D161813FBCF1D8FDF91CF91E2
:1029A0001F910895CE010E945D168F31D9F3F5CFA6
:1029B000CF93DF93EC0142E050E009960F943E0084
:1029C00089858F7789878A8580936001898580933F
:1029D0006101DF91CF910895CF93DF93EC0148E03F
:1029E00050E00B960F943E006396E4E6F1E08A9186
:1029F0008193EC3681E0F807D1F7DF91CF9108950C
:102A000025EF260F203120F4FC01648B0C949E16D8
:102A1000089580E0089583E00895643048F480913B
:102A20004C018C7F682B60934C0180E090E008950E
:102A300088EB9FEF089580914C0183700895609317
:102A40006201709363010895E0914501EF70F0E039
:102A5000EE0FFF1FE45DFC4F8081918108956F5E52
:102A60007F4F6531710514F064E170E077FF02C0BB
:102A700060E070E0FB01E95EFC4F808180934501DE
:102A80000895663A64F0633D64F4862F660F990BEF
:102A9000835A9F4F63E070E00E944AFD03C060E0EC
:102AA00001C06FE080915501807F682B60935501D4
:102AB000089580916C0182958F70089580916C01CA
:102AC0008F70683018F46295607F01C060E7682BF2
:102AD00060936C01089580916C018E7086950895C5
:102AE000663014F065E002C067FD67E080916C011C
:102AF000660F770B817F682B60936C0108956115D9
:102B0000710561F0FB01808180936D0180916E0100
:102B100091819770887F892B80936E0108958091B1
:102B200049018F70880F8A55089567FD61956195F9
:102B3000665A65956F70606C609349010895809145
:102B400047018A550895CF93DF93FC01238D348D7F
:102B5000442319F0262B372B05C0FB01E095F09597
:102B60002E233F23FC01348F238F6032710521F126
:102B700038F464307105D9F16031710541F04AC013
:102B80006038710561F161157140D9F143C044238A
:102B900071F0EC01BC01655F7F4F0E947F1564E01E
:102BA000CE010E94701583E580936F0133C06FEFF3
:102BB000DF91CF910C94701580916E01442311F038
:102BC000806101C08F7E80936E0180915701442304
:102BD00011F0826001C08D7F809357011BC08091EE
:102BE0006E01442311F08F7E13C0806111C080916B
:102BF0004E01442311F0846001C08B7F80934E010D
:102C000009C080916E01442311F0806201C08F7D64
:102C100080936E01DF91CF9108950F931F93CF930F
:102C2000DF938C01D62FC8010E945D16C82F8FEE4E
:102C30008C0F8230C0F38FEF8C0F8230A0F3CF3136
:102C400091F3D33019F443E068E02AC0CD1779F14D
:102C5000C63119F4D93141F504C0C93139F4D6313E
:102C600019F549E069E0C8010E94BF14DF3089F41A
:102C700043E068E0C8010E94BF1480914F01F80151
:102C8000128E809139018260809339018FE0858FA7
:102C90000EC0CF3019F4C8010E9465164D2F6D2F5C
:102CA000C8010E94BF1403C0DF30C1F7E1CF8C2FF1
:102CB000DF91CF911F910F910895FC01858D8F3089
:102CC00019F0809141018F710895CF93DF93EC014A
:102CD0000E945D168F30A1F4809139018D7F809321
:102CE000390120E030E0A90163E170E080E090E08C
:102CF0000E944CF7809141018F718D8F8830D1F700
:102D0000DF91CF910895CF93DF93EC01809139014A
:102D100081608093390120E030E0A90163E070E038
:102D200080E090E00E944CF780914101982F9F71C4
:102D30009D8F8771C9F7DF91CF910895CF93DF936E
:102D4000EC0168E00E940D16E8E4F1E090812C8926
:102D50002F71907E922B9083682FCE01DF91CF91BF
:102D60000C940D16DC011296ED91FC91139730979F
:102D700011F060E019940895DC011296ED91FC9138
:102D800013973097A9F05B962C9121FF11C0603208
:102D900049F018F4662331F00895603639F0603A4E
:102DA00019F0089564E003C066E001C067E019947B
:102DB0000895FF920F931F93CF93DF93EC010E942E
:102DC0005D16182F8F3009F441C0FA8C1A8E0091CD
:102DD0004201F2FE05C0EA81FB8161E0CE01199556
:102DE0008F2D887499F1163111F0113169F48B8DA2
:102DF00083FF2CC0EA81FB8162E0CE01DF91CF919D
:102E00001F910F91FF901994007E193179F488A1D8
:102E1000811106C06EE173E08CE493E00E940C2403
:102E200018A26F8DCE010E940D1607C0123171F4E9
:102E300088A1823058F0815088A3602FCE01DF91A5
:102E4000CF911F910F91FF900C94BC16DF91CF9101
:102E50001F910F91FF900895AF92BF92CF92DF9292
:102E6000EF92FF920F931F93CF93DF938C01C62FA6
:102E70006A0159010E945D16D82F0115110509F448
:102E80008EC18F3009F04EC0CA3109F4C7C0C801E5
:102E90000E946516C83109F40AC110F5C03109F461
:102EA000A4C078F4C23009F449C020F4CC2309F45A
:102EB00077C08AC1C33009F451C0C63009F460C07C
:102EC00083C1C43109F408C120F4C33109F4FFC03F
:102ED0007BC1C53109F4DEC0C63109F4E3C074C159
:102EE000C23209F41BC178F4CD3109F401C120F4D8
:102EF000CC3109F4F6C068C1CE3109F401C1CF313B
:102F000009F403C161C1C93209F463C020F4C332BA
:102F100009F40EC159C1CA3209F420C1C43509F4FB
:102F20002CC152C1C83109F4C2C008F04BC0C03135
:102F300009F45BC008F0A9C0C23061F482E0A816B1
:102F4000B10419F065EF71E00FC0B601C8010E942D
:102F5000D81428C1C33010F1C33079F4E8E0AE16BC
:102F6000B10431F06AEF71E08CE493E00E940C242C
:102F7000B601C8010E94EC1415C1C63009F014C195
:102F8000F2E0AF16B10419F06FEF71E0EDCFF6018A
:102F900060817181C8010E941F1504C1C11104C163
:102FA000F2E0AF16B10419F064E072E0DDCFF60193
:102FB000608185EF860F803108F016C1C8010E943C
:102FC0000015F0C0CF3109F4A0C000F1C93209F0FA
:102FD000A1C0F2E0AF16B10419F063E172E0C4CF12
:102FE000F6018081811100C10DC0F3E0AF16B1047C
:102FF00018F069E272E0B8CFF60160817181C80112
:103000000E942F1532E0E32EF12CF2C0CC3109F4EE
:1030100068C008F06BC0CA3109F0C6C0F2E0AF1654
:10302000B10418F06FE272E09FCFF6018081843026
:10303000A1F038F4813061F0823009F0B3C066E16C
:1030400008C08530D9F0863009F0ACC068E001C016
:103050006FE0C8010E940D16CFC0F801838D86FF76
:10306000CBC080A1811102C081E080A369E1C801C9
:103070000E940D16C8010E946F14BEC0C8010E94B4
:103080008316C8010E94F313B7C0C43129F1E0F0E0
:10309000C53129F4F601408160E870E043C0C631D3
:1030A00009F082C0F601408160E071E03BC0F2E0CF
:1030B000AF16B10418F066E472E056CFF6016081F5
:1030C000C8010E945E1567C0C33109F06DC0F601EA
:1030D000408160E470E026C0F601408160E270E06B
:1030E00021C0F601408164E070E01CC0CD3129F4BC
:1030F000F601408168E070E015C0CE3109F054C09F
:10310000F601408161E070E00DC0F601408162E0AF
:1031100070E008C0CA3200F5C23241F4F6014081C5
:1031200060E170E0C8010E94A31535C0C332E1F52B
:10313000F2E0AF16B10418F06CE772E015CFF801B9
:10314000838D84FF51C0F6016081663008F04CC069
:10315000C8010E9470151FC0CA3269F4F2E0AF16B0
:10316000B10418F06AE872E0FFCEF6016081C80190
:103170000E94951510C0C435B9F4F2E0AF16B10441
:1031800018F062E972E0F0CEF6016081C8010E9499
:103190000D1597FD29C0EE24E394F12C29C084ED90
:1031A0009FEF2CC0DF3081F09501A6016C2FC80184
:1031B000DF91CF911F910F91FF90EF90DF90CF9013
:1031C000BF90AF900C9448C9CA3171F393ECE92ECB
:1031D000FF24FA946FE0C8010E940D16F3ECEF167D
:1031E000FFEFFF0639F4E0CF84EEE82EFF24FA94D7
:1031F000DF3081F3C70102C081E090E0DF91CF9121
:103200001F910F91FF90EF90DF90CF90BF90AF9004
:103210000895CF93DF93EC019093CB1F8093CA1F47
:103220000E94831680915C01843931F4CE010E94A2
:10323000F31380E090E002C083EC9FEFDF91CF9129
:103240000895EF92FF920F931F93CF93DF937C012A
:103250008B010E944414C0E0D0E001151105C1F0BB
:10326000F80144815581CA0102968C0F9D1F803858
:103270009105B8F44115510539F0628173819E01C1
:10328000C7010E945614EC01F80100811181E5CFBD
:10329000F701838D86FD03C0C7010E946F14CE0124
:1032A00002C08FEB9FEFDF91CF911F910F91FF90A5
:1032B000EF9008958F929F92AF92BF92CF92DF923C
:1032C000EF92FF920F931F93CF93DF931F921F9262
:1032D000CDB7DEB77C015B014A01690169E00E945C
:1032E0000D1600917B010F7710E002501109A11417
:1032F000B10419F4892891F12CC08016910640F48C
:10330000F701678DC7010E940D1606ED1FEF26C05D
:10331000A80160E871E0C5010F943E0042E050E072
:1033200060E871E0CE0101960F943E00C114D10413
:1033300081F041E050E060E871E0C60102960F9430
:103340003E008091470190E08A559109F6019183F2
:103350008083F701678DC7010E940D16C8010F9089
:103360000F90DF91CF911F910F91FF90EF90DF9021
:10337000CF90BF90AF909F908F9008950E945D1660
:103380008850823130F4E82FF0E0EF58FC4F808114
:10339000089582E00895AF92BF92CF92DF92EF92AC
:1033A000FF920F931F93CF93DF93009709F427C1E8
:1033B0006D3109F459C069017A01C62F8C016E3153
:1033C00090F4643109F449C018F46331F1F164C038
:1033D0006A3161F16C3109F05FC0FC01838D82FBC1
:1033E000882780F92DC0623209F449C058F46E3143
:1033F00009F441C06F3109F04FC0FC01838D8695FF
:1034000081701EC0693219F06234F1F145C022307A
:10341000310518F46AE371E00DC0FA011182C801A8
:103420000E940915F701808382E00DC0232B31F43F
:1034300060E471E08CE493E00E940C240E94BE19C9
:10344000F701808381E090E0E0C0FC01838D86FF7E
:1034500008C081E0F7018083F6CFFC01838D85FDF4
:10346000F8CFF7011082EECFFC01838D83FB882714
:1034700080F9FA01E6CFFC01838D8170E1CFFC0178
:10348000838D82958170DCCF232B19F469E771E07D
:10349000D1CFFC0181A1D4CF9601A7016C2FC80127
:1034A0000E94A7C85C01CD9609F0ABC0C8010E947C
:1034B0005D16D82F8F3011F5C8010E946516C332F2
:1034C00009F442C068F4C031F1F020F4C13009F4CD
:1034D00056C090C0C53109F464C0C83161F18AC0DA
:1034E000C23309F455C018F4CA32E9F183C0C335B8
:1034F00009F46AC0C43509F472C07CC0C33221F13A
:1035000060F5C03189F482E0C816D10418F466E988
:1035100071E090CFC8010E942415F7019183808348
:1035200092E0A92EB12C64C0C13130F1C531C9F18E
:10353000C83109F068C0CD2819F46DE971E07ACF7F
:10354000C8010E94591538C0CD2819F465EA71E008
:1035500071CFC8010E946B152FC0C233C9F090F51E
:10356000CA3209F050C0CD2819F46CEA71E062CF7C
:10357000C8010E948F1520C0C13009F044C0CD2879
:1035800019F462EB71E056CFC8010E948F1414C089
:10359000CD2819F468EB71E04DCFC8010E949F154A
:1035A0000BC0CD2819F46FEB71E044CF80916E0110
:1035B0008295817091E08927F7018083AA24A394E2
:1035C000B12C16C0C33549F4CD2819F469EC71E06B
:1035D00031CFC8010E940B1533CFC435A1F4CD28DB
:1035E00019F46EEC71E026CFC8010E941B1528CF9C
:1035F000DF3039F46FE0C8010E940D1602C084ED7F
:1036000003C0C50102C083EC9FEFDF91CF911F91F2
:103610000F91FF90EF90DF90CF90BF90AF90089503
:103620001F920F920FB60F9211240BB60F928F9329
:10363000EF93FF93E091CA1FF091CB1F81A18F5FA1
:1036400081A3FF91EF918F910F900BBE0F900FBE52
:103650000F901F9018951F920F920FB60F92112482
:103660000BB60F922F933F934F935F936F937F937C
:103670008F939F93AF93BF93EF93FF938091CC1F52
:1036800080688093CC1F809142018091CA1F9091E5
:10369000CB1FFC01228D2860228F0E94B2160E944F
:1036A000371DFF91EF91BF91AF919F918F917F91C6
:1036B0006F915F914F913F912F910F900BBE0F90A3
:1036C0000FBE0F901F9018951F920F920FB60F927A
:1036D00011240BB60F922F933F934F935F936F93E9
:1036E0007F938F939F93AF93BF93EF93FF938091BB
:1036F000CC1F80688093CC1FE091CA1FF091CB1F34
:10370000828D8062828F0E94371DFF91EF91BF9161
:10371000AF919F918F917F916F915F914F913F9169
:103720002F910F900BBE0F900FBE0F901F9018950A
:103730001F920F920FB60F9211240BB60F922F9378
:103740003F934F935F936F937F938F939F93AF9329
:10375000BF93EF93FF938091CC1F80688093CC1F21
:10376000809142018F71863151F08091CA1F9091F2
:10377000CB1FFC01228D2064228F0E94B2160E9472
:10378000371DFF91EF91BF91AF919F918F917F91E5
:103790006F915F914F913F912F910F900BBE0F90C2
:1037A0000FBE0F901F901895A8950FB6F894A89586
:1037B00080916000886180936000109260000FBE6D
:1037C0000E94E9230C941CFD1F920F920FB60F92DA
:1037D00011249091BF0080914F011F929F931F92DF
:1037E0008F9384EB93E09F938F930F949701909125
:1037F00051018091E0001F929F931F928F9388ED5B
:1038000093E09F938F930F9497019BB38CB31F9278
:103810009F931F928F9383EF93E09F938F930F94C7
:103820009701749868EC73E080E00E942F281F9243
:103830000F920FB60F9211240BB60F922F933F9356
:103840004F935F936F937F938F939F93AF93BF93A8
:10385000EF93FF938091CC1F80688093CC1F0E94D0
:10386000371DFF91EF91BF91AF919F918F917F9104
:103870006F915F914F913F912F910F900BBE0F90E1
:103880000FBE0F901F9018950E9400240C943F24A7
:10389000240F351FF90131974FEA408331974EEFDE
:1038A000408342E15AE23197408331975083319708
:1038B00010823197808331979083319710823197AE
:1038C0001082319780E8808331971082319710827F
:1038D00031971082C90183971292E817F907E1F72F
:1038E000F901B4976083319770838AE182938F5F87
:1038F0008032E1F7C9018C9708950E9409298FB79A
:1039000078948DB79EB72091040230910502821BF6
:10391000930B9093010280930002809143639091F6
:103920004463892B41F480910202909103029093A9
:10393000446380934363A0914B23B0914C23CD917A
:10394000CDBFDD91DEBFFF91EF91DF91CF91BF91B0
:10395000AF919F918F917F916F915F914F913F9127
:103960002F911F910F91FF90EF90DF90CF90BF901C
:10397000AF909F908F907F906F905F904F903F900F
:103980002F901F900F900CBE0F900BBE0F900FBE8C
:103990000F9008958091CC1F87FD62C00F920FB6E3
:1039A000F8940F920BB60F920CB60F921F9211243F
:1039B0002F923F924F925F926F927F928F929F923F
:1039C000AF92BF92CF92DF92EF92FF920F931F932D
:1039D0002F933F934F935F936F937F938F939F9317
:1039E000AF93BF93CF93DF93EF93FF93A0914B23BC
:1039F000B0914C230DB60D920EB60D920E9409297E
:103A0000A0914B23B0914C23CD91CDBFDD91DEBF72
:103A1000FF91EF91DF91CF91BF91AF919F918F91E6
:103A20007F916F915F914F913F912F911F910F91D6
:103A3000FF90EF90DF90CF90BF90AF909F908F90CE
:103A40007F906F905F904F903F902F901F900F90BE
:103A50000CBE0F900BBE0F900FBE0F9008950895EF
:103A600081E090E090934A238093492308958091C8
:103A7000CC1F8F778093CC1F8091492390914A234C
:103A8000892B09F461C00F920FB6F8940F920BB610
:103A90000F920CB60F921F9211242F923F924F92C9
:103AA0005F926F927F928F929F92AF92BF92CF92CE
:103AB000DF92EF92FF920F931F932F933F934F93B9
:103AC0005F936F937F938F939F93AF93BF93CF93A6
:103AD000DF93EF93FF93A0914B23B0914C230DB64E
:103AE0000D920EB60D920E940929A0914B23B09120
:103AF0004C23CD91CDBFDD91DEBFFF91EF91DF91E2
:103B0000CF91BF91AF919F918F917F916F915F9175
:103B10004F913F912F911F910F91FF90EF90DF9068
:103B2000CF90BF90AF909F908F907F906F905F905D
:103B30004F903F902F901F900F900CBE0F900BBE98
:103B40000F900FBE0F9018950895DC0191E2E0E010
:103B5000F0E090935700E491EC93E2E0F0E0909372
:103B60005700E4911196EC931197E4E0F0E0909304
:103B70005700E4911296EC931297E1E0F0E09093F5
:103B80005700949113969C93089584E98093BC0008
:103B90008091BC0084FDFCCF1092BC00089594EA93
:103BA0009093BC009091BC0097FFFCCF9091B9001E
:103BB000987F983051F09091B900987F903129F01A
:103BC0000E94C51D8FEF9FEF0895880F682B6093AB
:103BD000BB0084E88093BC008091BC0087FFFCCFD1
:103BE0008091B900887F883151F08091B900887F39
:103BF000803429F00E94C51D8EEF9FEF089580E06C
:103C000090E00895892B31F06BE370E08BE094E055
:103C10000E940C241092CE1F1092CD1F8BB1836096
:103C20008BB9809164008F77809364008091BC0091
:103C30008B7F8093BC0088E48093B8008091B900AA
:103C40008C7F8093B9008091B9008093B9008091F6
:103C5000BC0084608093BC000895EF92FF920F93A4
:103C6000CF93DF93762F7A01E901892B31F06BE84E
:103C700070E08BE094E00E940C2400FD2BC0452BEB
:103C800061F1209751F103FF05C0F7019E0194EC0B
:103C900044E815C061E0872F0E94CF1D97FFF5CF44
:103CA00081EC9FEF1FC09093BC008091BC0087FF08
:103CB000FCCF8091BB0081932150310931F021303C
:103CC000310589F74093BC00F0CF02FD09C00E9486
:103CD000C51D06C080EC9FEF05C084EE9FEF02C0BB
:103CE00080E090E0DF91CF910F91FF90EF900895E9
:103CF000EF92FF920F93CF93DF93762FEA01790132
:103D0000892B31F06DEB70E08BE094E00E940C2485
:103D100000FD29C0209751F1232B41F103FF03C07F
:103D2000FE0124E809C060E0872F0E94CF1D97FFA5
:103D3000F7CF81EC9FEF22C0CF018C1B9D0B8E151E
:103D40009F05BCF481918093BB002093BC008091BF
:103D5000BC0087FFFCCF8091B900887F883261F377
:103D600083EE9FEF0BC080EC9FEF08C084EE9FEFC7
:103D700005C002FF0E94C51D80E090E0DF91CF9159
:103D80000F91FF90EF900895CF93DF931F92CDB7DF
:103D9000DEB7892B31F061EE70E08BE094E00E9499
:103DA0000C2481E08983BE016F5F7F4F8DEC9FE122
:103DB0000E94AD2780E090E00F90DF91CF910895B1
:103DC000892B31F069EE70E08BE094E00E940C24C6
:103DD0008DEC9FE10C94F02714BE8AEA90E0382E17
:103DE0008FB7F8949CE088E10FB6F894A89580937B
:103DF00060000FBE90936000FFCFFC018FB7F89476
:103E00007383628351834083F89487FD7894089587
:103E10008091DE0080FDFCCF0895ECEDF0E0808124
:103E20008062808308950E940D1F1092DF008FE151
:103E30008093E00040E050E0BA0185EF90E00E94FE
:103E4000FD1E40E050E0BA0181EF90E00E94FD1EAF
:103E500040E050E0BA018DEE90E00E94FD1E80E24D
:103E60008093B60088EB8093DC0040E050E0BA011C
:103E700081EE90E00E94FD1E0C94081F1F920F928D
:103E80000FB60F9211240BB60F922F933F934F93BF
:103E90005F936F937F938F939F93AF93BF93EF93B2
:103EA000FF938091CC1F80688093CC1FE091D31F3B
:103EB000F091D41F309729F08091D51F9091D61F93
:103EC00019950E94371DFF91EF91BF91AF919F917E
:103ED0008F917F916F915F914F913F912F910F90B3
:103EE0000BBE0F900FBE0F901F9018951F920F9250
:103EF0000FB60F9211240BB60F922F933F934F934F
:103F00005F936F937F938F939F93AF93BF93EF9341
:103F1000FF938091CC1F80688093CC1F8091DF003D
:103F20008D7F8093DF00E091CF1FF091D01F3097FD
:103F300049F01092D01F1092CF1F8091D11F909105
:103F4000D21F19950E94371DFF91EF91BF91AF913C
:103F50009F918F917F916F915F914F913F912F91A1
:103F60000F900BBE0F900FBE0F901F9018952091D1
:103F7000CC1F20682093CC1F21E030E0A901062E41
:103F800002C0440F551F0A94E2F7FC01EE0FFF1F19
:103F9000E80FF91F02C0440F551FEA95E2F7E091C0
:103FA000D71FF091D81F4E235F23452BA9F04CE07B
:103FB000489FF001499FF00D1124EA5FFD4F0280F8
:103FC000F381E02D4081DB01119601C0220FAA95FB
:103FD000EAF72095242320832CE0289FD001299FF5
:103FE000B00D1124AA5FBD4F1696ED91FC91179765
:103FF00018968D919C91199719950C94371D8F9255
:104000009F92AF92BF92CF92DF92EF92FF920F9367
:104010001F93DC010397D8F4EAE2F4E090E0C12CAE
:1040200084E2D82E84EFE82EF12C4601570101904E
:1040300004C0B694A794979487940A94D2F79F5F8C
:1040400084169506A606B70629F0953071F78FEF0E
:104050009FEF1EC08CE08A9FF0018B9FF00D112412
:10406000EA5FFD4FA081B1811C9211961C921197BD
:1040700012961C92129715961C921E9214973783D3
:10408000268311870087928711969C9380E090E0A9
:104090001F910F91FF90EF90DF90CF90BF90AF9066
:1040A0009F908F9008950F931F93CF93DF9363306A
:1040B00071050CF04FC0CFB7F8942CE0289FF001A9
:1040C000299FF00D1124EA5FFD4F20813181DB0132
:1040D0001496AA0FBB1FA20FB31F11965C934E93A9
:1040E00004811581D801DC91AB014F5F5F4F21E066
:1040F00030E0D90102C0AA0FBB1F4A95E2F7AD011B
:104100005A2F50955D23D8015C930280F381E02DF6
:104110005081452B408302C0220F331F6A95E2F77E
:10412000AC01440F551F840F951F02C0220F331F8F
:104130008A95E2F78091D71F9091D81F282B392BB1
:104140003093D81F2093D71FF894C7FD789480E050
:1041500090E002C08FEF9FEFDF91CF911F910F9101
:1041600008952FB7F8943CE0389FF001399FF00D87
:104170001124EA5FFD4F0190F081E02D848195814B
:10418000F89427FD789408951F920F920FB60F921E
:1041900011240BB60F922F933F934F935F936F931E
:1041A0007F938F939F93AF93BF93EF93FF9360E0C1
:1041B00070E080E090E00E94B71FFF91EF91BF9107
:1041C000AF919F918F917F916F915F914F913F91AF
:1041D0002F910F900BBE0F900FBE0F901F90189550
:1041E0001F920F920FB60F9211240BB60F922F93BE
:1041F0003F934F935F936F937F938F939F93AF936F
:10420000BF93EF93FF9361E070E080E090E00E9445
:10421000B71FFF91EF91BF91AF919F918F917F91C8
:104220006F915F914F913F912F910F900BBE0F9027
:104230000FBE0F901F9018951F920F920FB60F92FE
:1042400011240BB60F922F933F934F935F936F936D
:104250007F938F939F93AF93BF93EF93FF9362E00E
:1042600070E080E090E00E94B71FFF91EF91BF9156
:10427000AF919F918F917F916F915F914F913F91FE
:104280002F910F900BBE0F900FBE0F901F9018959F
:104290001F920F920FB60F9211240BB60F922F930D
:1042A0003F934F935F936F937F938F939F93AF93BE
:1042B000BF93EF93FF9360E070E081E090E00E9495
:1042C000B71FFF91EF91BF91AF919F918F917F9118
:1042D0006F915F914F913F912F910F900BBE0F9077
:1042E0000FBE0F901F9018951F920F920FB60F924E
:1042F00011240BB60F922F933F934F935F936F93BD
:104300007F938F939F93AF93BF93EF93FF9361E05E
:1043100070E081E090E00E94B71FFF91EF91BF91A4
:10432000AF919F918F917F916F915F914F913F914D
:104330002F910F900BBE0F900FBE0F901F901895EE
:104340001F920F920FB60F9211240BB60F922F935C
:104350003F934F935F936F937F938F939F93AF930D
:10436000BF93EF93FF9362E070E081E090E00E94E2
:10437000B71FFF91EF91BF91AF919F918F917F9167
:104380006F915F914F913F912F910F900BBE0F90C6
:104390000FBE0F901F9018951F920F920FB60F929D
:1043A00011240BB60F922F933F934F935F936F930C
:1043B0007F938F939F93AF93BF93EF93FF9360E0AF
:1043C00070E082E090E00E94B71FFF91EF91BF91F3
:1043D000AF919F918F917F916F915F914F913F919D
:1043E0002F910F900BBE0F900FBE0F901F9018953E
:1043F0001F920F920FB60F9211240BB60F922F93AC
:104400003F934F935F936F937F938F939F93AF935C
:10441000BF93EF93FF9361E070E082E090E00E9431
:10442000B71FFF91EF91BF91AF919F918F917F91B6
:104430006F915F914F913F912F910F900BBE0F9015
:104440000FBE0F901F9018951F920F920FB60F92EC
:1044500011240BB60F922F933F934F935F936F935B
:104460007F938F939F93AF93BF93EF93FF9362E0FC
:1044700070E082E090E00E94B71FFF91EF91BF9142
:10448000AF919F918F917F916F915F914F913F91EC
:104490002F910F900BBE0F900FBE0F901F9018958D
:1044A0002091CC1F20682093CC1FFC01EE0FFF1F32
:1044B000E15DFB4F0190F081E02D6681880F991F2F
:1044C000880F991FDC01A752B04EED91FC91119716
:1044D00012968D919C91139719950C94371DEF921C
:1044E000FF920F931F93CF93DF9379018230910551
:1044F00008F046C020E030E0E091CC1FE37019F0F6
:1045000021503109C9F7FC01EE0FFF1FEE0FFF1F0D
:10451000E752F04EF182E08213830283880F991FE5
:10452000FC01E15DFB4FC081D1811982188286E0D8
:104530008A83DB01CA0180589B47A14EBF4FE3E04D
:10454000880F991FAA1FBB1FEA95D1F79A01AB01EB
:10455000F4E0220F331F441F551FFA95D1F7BC0119
:10456000CD010E945EFD215031093D832C83EF284F
:1045700011F088ED01C088E4898380E090E002C0FA
:104580008FEF9FEFDF91CF911F910F91FF90EF90F1
:104590000895CF93DF939C0191E0022E01C0990F03
:1045A0000A94EAF7DB01460F571F220F331FF90168
:1045B000E15DFB4F9F01A417B507B1F0C081D18128
:1045C000888185FFFDCF6FB7F8948091CC1F892B30
:1045D0008093CC1FF89467FD7894E9016881798114
:1045E0008D91EB018E83E7CFDF91CF9108951F92DC
:1045F0000F920FB60F9211240BB60F922F933F9389
:104600004F935F936F937F938F939F93AF93BF93DA
:10461000EF93FF9380E090E00E945022FF91EF9192
:10462000BF91AF919F918F917F916F915F914F91CA
:104630003F912F910F900BBE0F900FBE0F901F90C8
:1046400018951F920F920FB60F9211240BB60F926E
:104650002F933F934F935F936F937F938F939F938A
:10466000AF93BF93EF93FF9381E090E00E945022BD
:10467000FF91EF91BF91AF919F918F917F916F913A
:104680005F914F913F912F910F900BBE0F900FBEF6
:104690000F901F9018951F920F920FB60F92112432
:1046A0000BB60F922F933F934F935F936F937F932C
:1046B0008F939F93AF93BF93EF93FF938091CC1F02
:1046C0008E7F80688093CC1F0E94371DFF91EF91F1
:1046D000BF91AF919F918F917F916F915F914F911A
:1046E0003F912F910F900BBE0F900FBE0F901F9018
:1046F00018951F920F920FB60F9211240BB60F92BE
:104700002F933F934F935F936F937F938F939F93D9
:10471000AF93BF93EF93FF938091CC1F8D7F806801
:104720008093CC1F0E94371DFF91EF91BF91AF91F5
:104730009F918F917F916F915F914F913F912F91B9
:104740000F900BBE0F900FBE0F901F9018950E94F8
:10475000D6CC0E94FCF90E948ECE0E94FA830E9461
:10476000609D0E94993C0E949ABB0E9457590E94EA
:1047700049810E94958883E394E09F938F930F94DF
:1047800097010F900F900895CF93DF931F92CDB7AD
:10479000DEB761E070E0CE0101960E9473F389817B
:1047A000082E000C990B0F90DF91CF910895CF93B5
:1047B000DF931F92CDB7DEB7898361E070E0CE0151
:1047C00001960E9479F380E090E00F90DF91CF9105
:1047D00008950E9462F3E7E4F3E688E392E09383AE
:1047E00082838AE292E0918380838CE494E00D944A
:1047F000D3018DB188618DB98EB188618EB908956C
:10480000E1E6F0E080E8808310820E94D41B0E94E1
:10481000F9238FB7789408957F936F939F938F9325
:104820008EE494E09F938F930F94970168E575E071
:1048300083E00E942F282FB7F894FC01808191819A
:10484000F89427FD78940895FC019FB7F89471833C
:104850006083F89497FD789408950E94A72388E5D3
:1048600094E09F938F930F9497010E948C130F9065
:104870000F9080E090E008950E9425FDFDCF8FB756
:10488000F8948AE9C82E84E0D82EE12CF12C0CE3B0
:1048900014E22CE030E04FE060EC70E081EE9FE14C
:1048A0000E94842A9AE9C92E9CE1D92E0DE214E2D5
:1048B0002CE030E047E060E872E081EA90E20E949C
:1048C000842A0E947D1C1F93CF93DF93EC01162F47
:1048D0006CE00E9467298B8190E0F89417FD789432
:1048E000DF91CF911F910C94F829EF92FF921F93C3
:1048F000CF93DF937C01162FC0914B23D0914C2393
:1049000069E0CE010E946729BE01C7010E94552AB5
:10491000F89417FD7894DF91CF911F91FF90EF905D
:104920000C94392A0F931F93CF93DF93EC018B01E3
:104930002FB7F894622F70E0E881F981309791F0F9
:104940008081918199838883CF010897FC01A2859A
:10495000B38528E0F80101900D922A95E1F70E94B5
:10496000632435C08E819F81EC81FD818E1B9F0B5E
:10497000E885F985E817F90744F4452B59F1CE018C
:1049800002960E9475246FB7F894809191239091BC
:104990009223F801918380832A853B85AE81BF8174
:1049A000CD0101969F838E8388859985A823B9239D
:1049B00083E0AA0FBB1F8A95E1F7A20FB31F88E01F
:1049C00001900D928A95E1F7F89467FD789481E063
:1049D00090E005C0F89427FD789480E090E0DF91A6
:1049E000CF911F910F910895CF93DF93EC01DB01DD
:1049F0002FB7F894622F70E0EC81FD818E819F814A
:104A00008E179F0719F14A855B85CF0101969D831B
:104A10008C8388859985E823F92383E0EE0FFF1FB7
:104A20008A95E1F7E40FF51F88E001900D928A95D1
:104A3000E1F78A819B810097D9F0FC0120813181C7
:104A40003B832A8308970E94632415C0452B51F0AD
:104A5000E0914B23F0914C23B387A287CE010E94B3
:104A6000752409C0F89427FD789480E090E005C093
:104A7000F89427FD789481E090E0DF91CF9108953C
:104A8000FF920F931F93CF93DF93FFB6F894C091DB
:104A90004B23D0914C232C893D89232B99F12E85D2
:104AA0003F85488959894217530761F1A9014F5F32
:104AB0005F4F5F874E874A895B8924233523672BA5
:104AC00071F44C855D85452B51F42F3F4FEF340732
:104AD00031F4F894F7FC78948FEF9FEF89C037FD9D
:104AE00015C0EC89FD89A90163E0440F551F6A9543
:104AF000E1F7E40FF51F48E0DC0101900D924A95C3
:104B0000E1F706C02FEF3FEF672BD9F29B878A872B
:104B1000EC85FD85309709F44FC0408151815D8758
:104B20004C878F010850110937FD1FC08C899D8962
:104B3000488959892A893B896E857F85DA01A61BB8
:104B4000B70B2A173B0744F0BA016F5F7F4F798B91
:104B5000688B2423352302C02FEF3FEF43E0220F61
:104B6000331F4A95E1F7820F931FD8011A96ED91F2
:104B7000FC911B9728E0DC0101900D922A95E1F74A
:104B8000F8018281863059F0138612866CE0C801E4
:104B90000E946729D80113968C9190E002C08FE0A3
:104BA00090E0F894F7FC78948F30910510F40E940F
:104BB000F82981E090E01CC037FF16C064E0CE0108
:104BC0000E946729F894F7FC78940E94CA1CE0912F
:104BD0004B23F0914C238281843059F762E871E0D5
:104BE0008FE994E00E940C24F894F7FC7894E1CFCC
:104BF000DF91CF911F910F91FF900895CF93DF9395
:104C0000EC01A889B9898A899B892E853F85AD01E8
:104C1000421B530B841795071CF480E090E022C0E0
:104C20009D012F5F3F4F398B288BA823B923B7FDF8
:104C3000F4CFFB0183E0AA0FBB1F8A95E1F78C89B3
:104C40009D89A80FB91F88E001900D928A95E1F720
:104C50008E819F8190689F838E83CE010E94562B08
:104C600081E090E0DF91CF910895CF92DF92EF92B3
:104C7000FF920F931F93CF93DF93660F771FFB0174
:104C8000E15BFC4DC081D1816091912370919223B1
:104C9000FC0171836083209731F4F89427FD7894A8
:104CA0008FEF9FEF4AC0122F042F7C018A8184303E
:104CB00091F1C0904B23D0904C23BF01CE010E94B4
:104CC000FE25009741F0F89417FD7894F601828153
:104CD000863089F52EC0011104C0F89417FD789430
:104CE0002CC0F601F386E2868281863011F065E001
:104CF00001C066E0C6010E946729B601CE010C968C
:104D00000E94552A8E819F8190689F838E83CE0159
:104D10000E94562B0BC0AA85BB8588E001900D929E
:104D20008A95E1F76CE0CE010E946729F89417FD9F
:104D300078940E94CA1C81E090E0DF91CF911F918E
:104D40000F91FF90EF90DF90CF900895CF93DF9376
:104D5000DB01AA0FBB1FA15BBC4DCD91DC9120975D
:104D6000E1F02A81243099F4FC01AA85BB8588E012
:104D700001900D928A95E1F76CE0CE010E946729BF
:104D800081E090E090934A238093492308C0BC01BE
:104D9000CE01DF91CF910C94FE258FEF9FEFDF9135
:104DA000CF910895CF93CFB7F8942091912330916C
:104DB0009223FC0131832083BC0180914B2390918D
:104DC0004C230E94FE25F894C7FD7894CF91089556
:104DD00021E230E0FC01318320830C94A62620914F
:104DE000CC1F27FD0C94E82620919123309192232B
:104DF0006217730711F40C94D2262FB7F89430E0A1
:104E000041E00C9435262091CC1F27FD0C94E82618
:104E100020919123309192236217730711F40C941F
:104E2000D2262FB7F89430E040E00C943526AF92AC
:104E3000BF92CF92DF92EF92FF921F93CF93DF93B7
:104E40005C01EB017A0180919123909192234817A4
:104E5000590731F46FE071E08FE994E00E940C246F
:104E60001FB7F894C0904B23D0904C2366E0C60146
:104E70000E946729F601D387C28788E0F501DE0129
:104E800001900D928A95E1F7212F30E041E0B701C2
:104E9000CE01DF91CF911F91FF90EF90DF90CF90E7
:104EA000BF90AF900C9435261F93CF93DF931FB71D
:104EB000F894FC01A081B181AA0FBB1FA15BBC4D7E
:104EC000CD91DC91209731F462E271E08FE994E0BA
:104ED0000E940C248A81863031F0F89417FD789472
:104EE0008FEF9FEF15C0AA85BB8588E0FB0101907D
:104EF0000D928A95E1F76CE0CE010E9467298B81C3
:104F000090E0F89417FD78940E94F82981E090E0F1
:104F1000DF91CF911F91089560E070E00C944025DF
:104F200061E070E00C944025E0914B23F0914C231C
:104F3000958B848BCB01019768237923672B31F004
:104F40006DE370E08FE994E00E940C2417861686CA
:104F5000118A108A938B828B0895FF920F931F936F
:104F6000CF93DF93EC01FFB6F89488819981892B68
:104F700041F48FEF9FEF99838883F894F7FC78943E
:104F800021C0FB018081882301F100914B23109106
:104F90004C2363E0C8010E946729888199810196AA
:104FA00041F4C801089699838883F8011186108618
:104FB00004C0B801CE010E94552AF894F7FC7894F9
:104FC0000E94CA1C81E090E005C0F894F7FC789438
:104FD00080E090E0DF91CF911F910F91FF900895B5
:104FE000FF920F931F93CF93DF93FFB6F894DC01EA
:104FF000ED91FC91309739F0EF3FBFEFFB0761F483
:10500000FC0111821082F894F7FC7894DF91CF9123
:105010001F910F91FF9008958C0180819181D8019B
:105020008D939C93EF0128976CE0CE010E94672935
:10503000F80180819181892B21F48FEF9FEF91837B
:1050400080838B8190E0F894F7FC7894DF91CF9186
:105050001F910F91FF900C94F82908950895182F2F
:10506000EB018091212390912223892B09F03CC0F0
:1050700081E090E09093222380932123133091F4D8
:105080000EB6202D0DB6802D90E0922B9F938F931E
:1050900087E195E09F938F930F9497010F900F9066
:1050A0000F900F90BE01812F0E942E28DF93CF9387
:1050B0008EE295E09F938F930F9497010E9452CBBD
:1050C00087ED9BE09F938F930F9497018AE495E07F
:1050D0009F938F930F9497018DB79EB708960FB645
:1050E000F8949EBF0FBE8DBF8FB7F8940E942D28F5
:1050F0000E9422FDAF92BF92CF92DF92EF92FF9279
:105100000F931F93CF93DF931F921F92CDB7DEB7FC
:105110008C015B011A82BE016E5F7F4F0E94AD273A
:105120007C01C80104966C01E114F104A9F460E06B
:1051300070E00E941B2420919123309192238217CA
:10514000930751F0AB28D1F481E08983BE016F5FF2
:105150007F4FC8010E94AD276091912370919223E7
:1051600040E050E0C6010E942424F801828193812E
:10517000019693838283EE24E394F12CC7010F9070
:105180000F90DF91CF911F910F91FF90EF90DF90E3
:10519000CF90BF90AF90089560E070E00C947A28B3
:1051A0000F931F93CF93DF93EC018C010C5F1F4F84
:1051B00060E070E0C8010E941B242091912330918F
:1051C00092238217930719F063E870E006C08A8182
:1051D0009B81009731F464E870E08AE695E00E94D4
:1051E0000C2401979B838A83892B71F440E050E063
:1051F00060E070E0C8010E942424CE01DF91CF91CD
:105200001F910F910C94F027DF91CF911F910F9177
:105210000895CF93DF93A0914B23B0914C2310922C
:105220004A2310924923209125233091262380E0A0
:1052300090E020FD04C0369527950196FACF880F9F
:10524000991FFC01E75DFC4D0190F081E02DC081CC
:10525000D18128978BE08A83E0912323F091242346
:10526000AC17BD0749F4309771F1209761F5609153
:1052700004007091050024C0109791F012968C9153
:1052800012978B3021F48CE012968C931297309702
:1052900039F060E070E014968D919C911597199506
:1052A0006C817D817093922360939123D0934C23E2
:1052B000C0934B23E0912323F0912423309719F0DE
:1052C00080E090E01995CE01DF91CF9108950F9382
:1052D0001F93CF93DF93FC0182816B30E0F18B3021
:1052E00008F080C09F01285F3F4F838190E0880FC6
:1052F000991FDC01A75DBC4DCD91DC9111972097E2
:1053000051F048815981518740870D90BC91A02D63
:105310002D933C9302C031872087DC01A75DBC4DF3
:105320002D933C9381E090E0038002C0880F991F89
:105330000A94E2F7092E000CAA0BBB0B009125235F
:10534000109126232091272330912823802B912B05
:10535000A22BB32B3FC08B3008F444C0A381B0E034
:10536000AA0FBB1FA75DBC4DCD91DC911197209773
:1053700069F088819981C817D90719F41D921C9288
:1053800005C0DC018D919C91998388832381A22F94
:10539000B0E0AA0FBB1FA75DBC4D8D919C91892BDE
:1053A00009F581E090E002C0880F991F2A95E2F785
:1053B00080959095092E000CAA0BBB0B009125231C
:1053C0001091262320912723309128238023912395
:1053D000A223B3238093252390932623A0932723EE
:1053E000B09328236283DF91CF911F910F9108958D
:1053F000E0914B23F0914C2322812B3028F0238124
:1054000030E08217930768F48091CC1F87FF07C0B4
:1054100081E090E090934A238093492308950C946F
:10542000CA1C08958FB7F894E0919123F0919223CC
:10543000EE0FFF1FE15BFC4D1182108280914D2326
:1054400090914E23019790934E2380934D2360E0DB
:1054500080914B2390914C230E94672910924C23FA
:1054600010924B230E947D1C90932423809323232E
:1054700008958FB7F894E0914B23F0914C239281DB
:105480009B3070F0E381F0E0EE0FFF1FE75DFC4D15
:10549000A081B181109721F02D913C91318320831F
:1054A000F89487FD78940C94CA1CFB0122812B3060
:1054B00030F069E970E088E795E00E940C24638190
:1054C000AF01485F5F4FDC012D913C912115310503
:1054D00041F0D901189713967C91671710F0C90114
:1054E000F2CF31872087FC01518340830895FC016E
:1054F000208131812E173F0711F43296F9CF9F0199
:10550000281B390BC90108954F925F927F928F92A9
:105510009F92AF92BF92CF92DF92EF92FF920F9342
:105520001F93CF93DF93FC012B01522F403158F58D
:105530009B012C513109EC01C20FD31F53FF08C04E
:105540008C179D0738F4DC018D939C930296F8CF5D
:10555000918380839FB6F89481E593E2AA24A39473
:10556000B12CDC016D917D91CD01672B71F0BFEF06
:10557000AB1ABB0A61E2A616B10499F7F89497FC3E
:1055800078948FEB50C084EE4EC0B701C801752EE1
:10559000842E8F01F501EE0FFF1FE15BFC4DD183DF
:1055A000C083BD82AC82A8010E94481C9983888375
:1055B0001F8B0E8B5B8E4A8ED98EC88E8B821A8281
:1055C000198618861B861A861D861C861F861E86CF
:1055D000198A188A8FEF9FEF9B8B8A8B1D8A1C8AF2
:1055E00080914D2390914E23019690934E2380936A
:1055F0004D2370FE05C062E0CE010E9467290EC0F7
:105600006CE0CE010E94672972FC08C0F89497FCF8
:105610007894882D90E00E94F82903C0F89497FCB4
:105620007894C50101C09FEFDF91CF911F910F9139
:10563000FF90EF90DF90CF90BF90AF909F908F90B2
:105640007F905F904F900895CF93E0914B23F0911E
:105650004C23CFB7F8942681378128233923232B75
:1056600061F49387828767E0CF010E946729F894ED
:10567000C7FD7894CF910C94CA1CF894C7FD789418
:10568000CF9108954FB7F894FC01208131816223B6
:105690007323FB01E095F0952E233F23FC0131831A
:1056A0002083F89447FD7894CB010895CF93DF933E
:1056B000FC01C285D3858281873019F0883031F0B2
:1056C0001EC026813781C223D3230CC086819781D7
:1056D0008C239D2331E020E08C179D0709F030E0FA
:1056E000C32FD22F209769F0CF016CE00E94672969
:1056F00081E090E090934A238093492302C0C0E068
:10570000D0E0CE01DF91CF91089520914B233091CD
:105710004C23BC01C90106960C94422B0F931F9396
:10572000CF93DF93EC0100914B2310914C230E9407
:10573000242BBE01C8010696DF91CF911F910F91D6
:105740000C94422BCF93FC01CFB7F89486819781BC
:10575000682B792B77836683228533858281873016
:1057600019F0883021F01FC0622373230AC062231E
:10577000732391E080E06217730709F090E0692FCE
:10578000782F672B81F0CF016CE00E94672981E0C0
:1057900090E090934A2380934923F894C7FD78942E
:1057A000CF910C94CA1CF894C7FD7894CF910895BA
:1057B00062E070E00C94A22B9091460298133CC0DA
:1057C0006115710581F0A0919523B0919623FB019D
:1057D000EF54FA4D808190E0982F88276181862BC5
:1057E000A817B90749F54115510531F0FA01EF54F1
:1057F000FA4D8081811112C02115310529F41092D2
:1058000094231092932310C0F901EF54FA4D808134
:1058100090E0982F88272181822B02C08EEF9FEF86
:10582000909394238093932361E070E08091AB2365
:105830009091AC230C94A22B0895CF92DF92FF920B
:105840000F931F93CF93DF936B01F42E8093460247
:1058500080914B2390914C239093AC238093AB2366
:1058600083E090E00E94852BC4E0D0E021EB37E29A
:10587000A60161EB73E287EC97E20E94A8B800E012
:1058800010E098014CE15EE46EE070E087E993E29D
:105890000E941CFC83E090E00E948E2B80FF09C0D8
:1058A00087E993E20E94F5FBC0919323D091942362
:1058B00004C02197D9F6CCEFDFEF8FEF809346023B
:1058C000FF2021F08DEA93E20E94F027CE01DF91C4
:1058D000CF911F910F91FF90DF90CF9008958F3F50
:1058E000910530F48F5F8093B12381E090E00895BB
:1058F00021E02093B12303969093B2238093B323A6
:1059000083E090E00895CF93DF931F92CDB7DEB789
:1059100081E08983BE016F5F7F4F8DEA93E20E9431
:10592000AD270F90DF91CF9108957F928F929F9234
:10593000AF92BF92CF92DF92EF92FF920F931F939D
:10594000CF93DF93EC01762E6A0159014701452B75
:1059500061F0232B21F0C7018F78892B31F06DED99
:1059600070E086E895E00E940C240E94832C8091D0
:10597000C5279091C627892B09F08FC046E150E0DA
:10598000BE0181EB97E20F943E00772019F084E08E
:10599000782E01C0712CC114D10419F0272D286074
:1059A000722EE0904A28F0904B28C7010F946900AE
:1059B000EC012696C093B12384E08093B2237092C9
:1059C000B32381E08093B4238093B52388E680934A
:1059D000B623C7010F946900AC01B70187EB93E2CE
:1059E0000F943E00C114D10409F44AC0C6010F94BB
:1059F00069007C01853C910528F4C801049681303A
:105A0000924030F01092C6271092C5272DEF46C065
:105A100040E0BE0186E00E941D2C0097C1F5E70121
:105A20002296CE010E946F2C7C01C80FD91FFC0169
:105A3000EF54FC4D87E080838182C6010F9469009A
:105A4000AC01B601C7018D549C4D0F943E0040E05F
:105A5000BE0188E00E941D2C0097C9F4E801219640
:105A6000CE010E946F2CC80FD91FFC01EF54FC4DD2
:105A700029E02083A801B5018E549C4D0F943E006F
:105A800041E0BE0185E00E941D2C009749F0109274
:105A9000C6271092C527282F05C02FEF9FEF02C001
:105AA00020E090E0822FDF91CF911F910F91FF9026
:105AB000EF90DF90CF90BF90AF909F908F907F90AE
:105AC00008958091C5279091C627892BB9F00E942F
:105AD000832C82E08093B12388E18093B22341E05C
